{
  "_format": "hh-sol-artifact-1",
  "contractName": "PickupLinesFactory",
  "sourceName": "contracts/PickupLines.sol",
  "abi": [
    {
      "inputs": [
        {
          "internalType": "uint256",
          "name": "",
          "type": "uint256"
        }
      ],
      "name": "authorPickup",
      "outputs": [
        {
          "internalType": "address",
          "name": "",
          "type": "address"
        }
      ],
      "stateMutability": "view",
      "type": "function"
    },
    {
      "inputs": [],
      "name": "createPickup",
      "outputs": [],
      "stateMutability": "nonpayable",
      "type": "function"
    },
    {
      "inputs": [
        {
          "internalType": "uint256",
          "name": "",
          "type": "uint256"
        }
      ],
      "name": "createdDatePick",
      "outputs": [
        {
          "internalType": "uint256",
          "name": "",
          "type": "uint256"
        }
      ],
      "stateMutability": "view",
      "type": "function"
    },
    {
      "inputs": [
        {
          "internalType": "uint256",
          "name": "",
          "type": "uint256"
        }
      ],
      "name": "deployedPickup",
      "outputs": [
        {
          "internalType": "address",
          "name": "",
          "type": "address"
        }
      ],
      "stateMutability": "view",
      "type": "function"
    },
    {
      "inputs": [],
      "name": "getAuthorPickup",
      "outputs": [
        {
          "internalType": "address[]",
          "name": "",
          "type": "address[]"
        }
      ],
      "stateMutability": "view",
      "type": "function"
    },
    {
      "inputs": [],
      "name": "getCreatedDatePickup",
      "outputs": [
        {
          "internalType": "uint256[]",
          "name": "",
          "type": "uint256[]"
        }
      ],
      "stateMutability": "view",
      "type": "function"
    },
    {
      "inputs": [],
      "name": "getDeployedPickup",
      "outputs": [
        {
          "internalType": "address[]",
          "name": "",
          "type": "address[]"
        }
      ],
      "stateMutability": "view",
      "type": "function"
    },
    {
      "inputs": [],
      "name": "getPickupAtIndex",
      "outputs": [
        {
          "internalType": "address",
          "name": "",
          "type": "address"
        }
      ],
      "stateMutability": "view",
      "type": "function"
    },
    {
      "inputs": [],
      "name": "getPickupCount",
      "outputs": [
        {
          "internalType": "uint256",
          "name": "",
          "type": "uint256"
        }
      ],
      "stateMutability": "view",
      "type": "function"
    }
  ],
  "bytecode": "0x608060405234801561001057600080fd5b50611573806100206000396000f3fe608060405234801561001057600080fd5b50600436106100925760003560e01c806363eff9af1161006657806363eff9af1461010d57806376f92d7e1461013d5780638935273c1461016d578063bbb7b0501461018b578063e372557d146101a957610092565b8062a874f3146100975780630ebd0a12146100b557806330316fad146100d35780633ddb966c14610103575b600080fd5b61009f6101c7565b6040516100ac919061077f565b60405180910390f35b6100bd61028b565b6040516100ca91906107bc565b60405180910390f35b6100ed60048036038101906100e891906105ee565b6102e3565b6040516100fa91906107fe565b60405180910390f35b61010b610307565b005b610127600480360381019061012291906105ee565b610426565b604051610134919061077f565b60405180910390f35b610157600480360381019061015291906105ee565b610465565b604051610164919061077f565b60405180910390f35b6101756104a4565b604051610182919061079a565b60405180910390f35b610193610532565b6040516101a091906107fe565b60405180910390f35b6101b161053e565b6040516101be919061079a565b60405180910390f35b60008060008054905011610210576040517f08c379a0000000000000000000000000000000000000000000000000000000008152600401610207906107de565b60405180910390fd5b60006001600080549050610224919061089c565b8154811061025b577f4e487b7100000000000000000000000000000000000000000000000000000000600052603260045260246000fd5b9060005260206000200160009054906101000a900473ffffffffffffffffffffffffffffffffffffffff16905090565b606060018054806020026020016040519081016040528092919081815260200182805480156102d957602002820191906000526020600020905b8154815260200190600101908083116102c5575b5050505050905090565b600181815481106102f357600080fd5b906000526020600020016000915090505481565b6000604051610315906105cc565b604051809103906000f080158015610331573d6000803e3d6000fd5b5090506000819080600181540180825580915050600190039060005260206000200160009091909190916101000a81548173ffffffffffffffffffffffffffffffffffffffff021916908373ffffffffffffffffffffffffffffffffffffffff16021790555060014290806001815401808255809150506001900390600052602060002001600090919091909150556002339080600181540180825580915050600190039060005260206000200160009091909190916101000a81548173ffffffffffffffffffffffffffffffffffffffff021916908373ffffffffffffffffffffffffffffffffffffffff16021790555050565b6000818154811061043657600080fd5b906000526020600020016000915054906101000a900473ffffffffffffffffffffffffffffffffffffffff1681565b6002818154811061047557600080fd5b906000526020600020016000915054906101000a900473ffffffffffffffffffffffffffffffffffffffff1681565b6060600280548060200260200160405190810160405280929190818152602001828054801561052857602002820191906000526020600020905b8160009054906101000a900473ffffffffffffffffffffffffffffffffffffffff1673ffffffffffffffffffffffffffffffffffffffff16815260200190600101908083116104de575b5050505050905090565b60008080549050905090565b606060008054806020026020016040519081016040528092919081815260200182805480156105c257602002820191906000526020600020905b8160009054906101000a900473ffffffffffffffffffffffffffffffffffffffff1673ffffffffffffffffffffffffffffffffffffffff1681526020019060010190808311610578575b5050505050905090565b610beb8061095383390190565b6000813590506105e88161093b565b92915050565b60006020828403121561060057600080fd5b600061060e848285016105d9565b91505092915050565b60006106238383610647565b60208301905092915050565b600061063b8383610761565b60208301905092915050565b610650816108d0565b82525050565b61065f816108d0565b82525050565b600061067082610839565b61067a8185610869565b935061068583610819565b8060005b838110156106b657815161069d8882610617565b97506106a88361084f565b925050600181019050610689565b5085935050505092915050565b60006106ce82610844565b6106d8818561087a565b93506106e383610829565b8060005b838110156107145781516106fb888261062f565b97506107068361085c565b9250506001810190506106e7565b5085935050505092915050565b600061072e60188361088b565b91507f4e6f7420666f756e64207069636b757020696e206c69737400000000000000006000830152602082019050919050565b61076a81610902565b82525050565b61077981610902565b82525050565b60006020820190506107946000830184610656565b92915050565b600060208201905081810360008301526107b48184610665565b905092915050565b600060208201905081810360008301526107d681846106c3565b905092915050565b600060208201905081810360008301526107f781610721565b9050919050565b60006020820190506108136000830184610770565b92915050565b6000819050602082019050919050565b6000819050602082019050919050565b600081519050919050565b600081519050919050565b6000602082019050919050565b6000602082019050919050565b600082825260208201905092915050565b600082825260208201905092915050565b600082825260208201905092915050565b60006108a782610902565b91506108b283610902565b9250828210156108c5576108c461090c565b5b828203905092915050565b60006108db826108e2565b9050919050565b600073ffffffffffffffffffffffffffffffffffffffff82169050919050565b6000819050919050565b7f4e487b7100000000000000000000000000000000000000000000000000000000600052601160045260246000fd5b61094481610902565b811461094f57600080fd5b5056fe608060405261002f6040518060600160405280602e8152602001610bbd602e913961003460201b61036f1760201c565b6101b7565b6100d0816040516024016100489190610135565b6040516020818303038152906040527f41304fac000000000000000000000000000000000000000000000000000000007bffffffffffffffffffffffffffffffffffffffffffffffffffffffff19166020820180517bffffffffffffffffffffffffffffffffffffffffffffffffffffffff83818316178352505050506100d360201b60201c565b50565b60008151905060006a636f6e736f6c652e6c6f679050602083016000808483855afa5050505050565b600061010782610157565b6101118185610162565b9350610121818560208601610173565b61012a816101a6565b840191505092915050565b6000602082019050818103600083015261014f81846100fc565b905092915050565b600081519050919050565b600082825260208201905092915050565b60005b83811015610191578082015181840152602081019050610176565b838111156101a0576000848401525b50505050565b6000601f19601f8301169050919050565b6109f7806101c66000396000f3fe608060405234801561001057600080fd5b50600436106100415760003560e01c80633c1ffab114610046578063770b5eaf146100645780638af3547814610080575b600080fd5b61004e6100b2565b60405161005b919061073e565b60405180910390f35b61007e600480360381019061007991906105ed565b6100fd565b005b61009a6004803603810190610095919061062e565b61028d565b6040516100a9939291906106ae565b60405180910390f35b60006100f56040518060400160405280601881526020017f5765206861766520257320746f74616c205069636b5570200000000000000000815250600154610408565b600154905090565b600180600082825461010f9190610806565b92505081905550600360405180606001604052803373ffffffffffffffffffffffffffffffffffffffff16815260200183815260200142815250908060018154018082558091505060019003906000526020600020906003020160009091909190915060008201518160000160006101000a81548173ffffffffffffffffffffffffffffffffffffffff021916908373ffffffffffffffffffffffffffffffffffffffff16021790555060208201518160010190805190602001906101d59291906104cd565b506040820151816002015550506001600260003373ffffffffffffffffffffffffffffffffffffffff1673ffffffffffffffffffffffffffffffffffffffff16815260200190815260200160002060006101000a81548160ff0219169083151502179055503373ffffffffffffffffffffffffffffffffffffffff167fe31c1c5d2435fc0b08177399b00a58890a62dc1e316b2e750a9142d65600508e4283604051610282929190610759565b60405180910390a250565b6003818154811061029d57600080fd5b90600052602060002090600302016000915090508060000160009054906101000a900473ffffffffffffffffffffffffffffffffffffffff16908060010180546102e6906108da565b80601f0160208091040260200160405190810160405280929190818152602001828054610312906108da565b801561035f5780601f106103345761010080835404028352916020019161035f565b820191906000526020600020905b81548152906001019060200180831161034257829003601f168201915b5050505050908060020154905083565b6104058160405160240161038391906106ec565b6040516020818303038152906040527f41304fac000000000000000000000000000000000000000000000000000000007bffffffffffffffffffffffffffffffffffffffffffffffffffffffff19166020820180517bffffffffffffffffffffffffffffffffffffffffffffffffffffffff83818316178352505050506104a4565b50565b6104a0828260405160240161041e92919061070e565b6040516020818303038152906040527fb60e72cc000000000000000000000000000000000000000000000000000000007bffffffffffffffffffffffffffffffffffffffffffffffffffffffff19166020820180517bffffffffffffffffffffffffffffffffffffffffffffffffffffffff83818316178352505050506104a4565b5050565b60008151905060006a636f6e736f6c652e6c6f679050602083016000808483855afa5050505050565b8280546104d9906108da565b90600052602060002090601f0160209004810192826104fb5760008555610542565b82601f1061051457805160ff1916838001178555610542565b82800160010185558215610542579182015b82811115610541578251825591602001919060010190610526565b5b50905061054f9190610553565b5090565b5b8082111561056c576000816000905550600101610554565b5090565b600061058361057e846107ba565b610789565b90508281526020810184848401111561059b57600080fd5b6105a6848285610898565b509392505050565b600082601f8301126105bf57600080fd5b81356105cf848260208601610570565b91505092915050565b6000813590506105e7816109aa565b92915050565b6000602082840312156105ff57600080fd5b600082013567ffffffffffffffff81111561061957600080fd5b610625848285016105ae565b91505092915050565b60006020828403121561064057600080fd5b600061064e848285016105d8565b91505092915050565b6106608161085c565b82525050565b6000610671826107ea565b61067b81856107f5565b935061068b8185602086016108a7565b61069481610999565b840191505092915050565b6106a88161088e565b82525050565b60006060820190506106c36000830186610657565b81810360208301526106d58185610666565b90506106e4604083018461069f565b949350505050565b600060208201905081810360008301526107068184610666565b905092915050565b600060408201905081810360008301526107288185610666565b9050610737602083018461069f565b9392505050565b6000602082019050610753600083018461069f565b92915050565b600060408201905061076e600083018561069f565b81810360208301526107808184610666565b90509392505050565b6000604051905081810181811067ffffffffffffffff821117156107b0576107af61096a565b5b8060405250919050565b600067ffffffffffffffff8211156107d5576107d461096a565b5b601f19601f8301169050602081019050919050565b600081519050919050565b600082825260208201905092915050565b60006108118261088e565b915061081c8361088e565b9250827fffffffffffffffffffffffffffffffffffffffffffffffffffffffffffffffff038211156108515761085061090c565b5b828201905092915050565b60006108678261086e565b9050919050565b600073ffffffffffffffffffffffffffffffffffffffff82169050919050565b6000819050919050565b82818337600083830152505050565b60005b838110156108c55780820151818401526020810190506108aa565b838111156108d4576000848401525b50505050565b600060028204905060018216806108f257607f821691505b602082108114156109065761090561093b565b5b50919050565b7f4e487b7100000000000000000000000000000000000000000000000000000000600052601160045260246000fd5b7f4e487b7100000000000000000000000000000000000000000000000000000000600052602260045260246000fd5b7f4e487b7100000000000000000000000000000000000000000000000000000000600052604160045260246000fd5b6000601f19601f8301169050919050565b6109b38161088e565b81146109be57600080fd5b5056fea26469706673582212204a56b4cde72502163f6aac2745faee7388c68284f1da1a89e6879f1beff97acb64736f6c63430008000033576f726b20436f6e7374727563746f722046696c6520466f72205069636b75704c696e657320436f6e7472616374a26469706673582212209d8118c5427615f3f14d3f0cc29ccf6074a7afcb707b121a04f0d487d51f5b0064736f6c63430008000033",
  "linkReferences": {},
  "deployedLinkReferences": {}
}