{
  "_format": "hh-sol-artifact-1",
  "contractName": "PickupLines",
  "sourceName": "contracts/PickupLines.sol",
  "abi": [
    {
      "inputs": [],
      "stateMutability": "payable",
      "type": "constructor"
    },
    {
      "anonymous": false,
      "inputs": [
        {
          "indexed": true,
          "internalType": "address",
          "name": "from",
          "type": "address"
        },
        {
          "indexed": false,
          "internalType": "uint256",
          "name": "timestamp",
          "type": "uint256"
        },
        {
          "indexed": false,
          "internalType": "string",
          "name": "line",
          "type": "string"
        }
      ],
      "name": "NewPickUpLine",
      "type": "event"
    },
    {
      "inputs": [],
      "name": "getTotalLines",
      "outputs": [
        {
          "internalType": "uint256",
          "name": "",
          "type": "uint256"
        }
      ],
      "stateMutability": "view",
      "type": "function"
    },
    {
      "inputs": [
        {
          "internalType": "string",
          "name": "_line",
          "type": "string"
        }
      ],
      "name": "newLine",
      "outputs": [],
      "stateMutability": "nonpayable",
      "type": "function"
    },
    {
      "inputs": [
        {
          "internalType": "uint256",
          "name": "",
          "type": "uint256"
        }
      ],
      "name": "pickups",
      "outputs": [
        {
          "internalType": "address",
          "name": "writer",
          "type": "address"
        },
        {
          "internalType": "string",
          "name": "line",
          "type": "string"
        },
        {
          "internalType": "uint256",
          "name": "timestamp",
          "type": "uint256"
        }
      ],
      "stateMutability": "view",
      "type": "function"
    }
  ],
  "bytecode": "0x608060405261002f6040518060600160405280602e8152602001610bbd602e913961003460201b61036f1760201c565b6101b7565b6100d0816040516024016100489190610135565b6040516020818303038152906040527f41304fac000000000000000000000000000000000000000000000000000000007bffffffffffffffffffffffffffffffffffffffffffffffffffffffff19166020820180517bffffffffffffffffffffffffffffffffffffffffffffffffffffffff83818316178352505050506100d360201b60201c565b50565b60008151905060006a636f6e736f6c652e6c6f679050602083016000808483855afa5050505050565b600061010782610157565b6101118185610162565b9350610121818560208601610173565b61012a816101a6565b840191505092915050565b6000602082019050818103600083015261014f81846100fc565b905092915050565b600081519050919050565b600082825260208201905092915050565b60005b83811015610191578082015181840152602081019050610176565b838111156101a0576000848401525b50505050565b6000601f19601f8301169050919050565b6109f7806101c66000396000f3fe608060405234801561001057600080fd5b50600436106100415760003560e01c80633c1ffab114610046578063770b5eaf146100645780638af3547814610080575b600080fd5b61004e6100b2565b60405161005b919061073e565b60405180910390f35b61007e600480360381019061007991906105ed565b6100fd565b005b61009a6004803603810190610095919061062e565b61028d565b6040516100a9939291906106ae565b60405180910390f35b60006100f56040518060400160405280601881526020017f5765206861766520257320746f74616c205069636b5570200000000000000000815250600154610408565b600154905090565b600180600082825461010f9190610806565b92505081905550600360405180606001604052803373ffffffffffffffffffffffffffffffffffffffff16815260200183815260200142815250908060018154018082558091505060019003906000526020600020906003020160009091909190915060008201518160000160006101000a81548173ffffffffffffffffffffffffffffffffffffffff021916908373ffffffffffffffffffffffffffffffffffffffff16021790555060208201518160010190805190602001906101d59291906104cd565b506040820151816002015550506001600260003373ffffffffffffffffffffffffffffffffffffffff1673ffffffffffffffffffffffffffffffffffffffff16815260200190815260200160002060006101000a81548160ff0219169083151502179055503373ffffffffffffffffffffffffffffffffffffffff167fe31c1c5d2435fc0b08177399b00a58890a62dc1e316b2e750a9142d65600508e4283604051610282929190610759565b60405180910390a250565b6003818154811061029d57600080fd5b90600052602060002090600302016000915090508060000160009054906101000a900473ffffffffffffffffffffffffffffffffffffffff16908060010180546102e6906108da565b80601f0160208091040260200160405190810160405280929190818152602001828054610312906108da565b801561035f5780601f106103345761010080835404028352916020019161035f565b820191906000526020600020905b81548152906001019060200180831161034257829003601f168201915b5050505050908060020154905083565b6104058160405160240161038391906106ec565b6040516020818303038152906040527f41304fac000000000000000000000000000000000000000000000000000000007bffffffffffffffffffffffffffffffffffffffffffffffffffffffff19166020820180517bffffffffffffffffffffffffffffffffffffffffffffffffffffffff83818316178352505050506104a4565b50565b6104a0828260405160240161041e92919061070e565b6040516020818303038152906040527fb60e72cc000000000000000000000000000000000000000000000000000000007bffffffffffffffffffffffffffffffffffffffffffffffffffffffff19166020820180517bffffffffffffffffffffffffffffffffffffffffffffffffffffffff83818316178352505050506104a4565b5050565b60008151905060006a636f6e736f6c652e6c6f679050602083016000808483855afa5050505050565b8280546104d9906108da565b90600052602060002090601f0160209004810192826104fb5760008555610542565b82601f1061051457805160ff1916838001178555610542565b82800160010185558215610542579182015b82811115610541578251825591602001919060010190610526565b5b50905061054f9190610553565b5090565b5b8082111561056c576000816000905550600101610554565b5090565b600061058361057e846107ba565b610789565b90508281526020810184848401111561059b57600080fd5b6105a6848285610898565b509392505050565b600082601f8301126105bf57600080fd5b81356105cf848260208601610570565b91505092915050565b6000813590506105e7816109aa565b92915050565b6000602082840312156105ff57600080fd5b600082013567ffffffffffffffff81111561061957600080fd5b610625848285016105ae565b91505092915050565b60006020828403121561064057600080fd5b600061064e848285016105d8565b91505092915050565b6106608161085c565b82525050565b6000610671826107ea565b61067b81856107f5565b935061068b8185602086016108a7565b61069481610999565b840191505092915050565b6106a88161088e565b82525050565b60006060820190506106c36000830186610657565b81810360208301526106d58185610666565b90506106e4604083018461069f565b949350505050565b600060208201905081810360008301526107068184610666565b905092915050565b600060408201905081810360008301526107288185610666565b9050610737602083018461069f565b9392505050565b6000602082019050610753600083018461069f565b92915050565b600060408201905061076e600083018561069f565b81810360208301526107808184610666565b90509392505050565b6000604051905081810181811067ffffffffffffffff821117156107b0576107af61096a565b5b8060405250919050565b600067ffffffffffffffff8211156107d5576107d461096a565b5b601f19601f8301169050602081019050919050565b600081519050919050565b600082825260208201905092915050565b60006108118261088e565b915061081c8361088e565b9250827fffffffffffffffffffffffffffffffffffffffffffffffffffffffffffffffff038211156108515761085061090c565b5b828201905092915050565b60006108678261086e565b9050919050565b600073ffffffffffffffffffffffffffffffffffffffff82169050919050565b6000819050919050565b82818337600083830152505050565b60005b838110156108c55780820151818401526020810190506108aa565b838111156108d4576000848401525b50505050565b600060028204905060018216806108f257607f821691505b602082108114156109065761090561093b565b5b50919050565b7f4e487b7100000000000000000000000000000000000000000000000000000000600052601160045260246000fd5b7f4e487b7100000000000000000000000000000000000000000000000000000000600052602260045260246000fd5b7f4e487b7100000000000000000000000000000000000000000000000000000000600052604160045260246000fd5b6000601f19601f8301169050919050565b6109b38161088e565b81146109be57600080fd5b5056fea26469706673582212204a56b4cde72502163f6aac2745faee7388c68284f1da1a89e6879f1beff97acb64736f6c63430008000033576f726b20436f6e7374727563746f722046696c6520466f72205069636b75704c696e657320436f6e7472616374",
  "linkReferences": {},
  "deployedLinkReferences": {}
}